S0150000542D62697264335F70726F67732E7372656330
S113000045C0000060C000005EC000005CC000008D
S11300105AC0000058C0000056C0000054C0000080
S113002052C0000050C000004EC000004CC0000090
S11300304AC0000048C0000046C000003AC10000A9
S113004042C0000040C0000090C000003CC000005E
S1130050B8C0000038C0000036C0000034C0000042
S113006032C0000030C000002EC000002CC00000D0
S11300702AC0000028C0000026C0000024C00000E0
S113008022C0000020C000001EC0000011241FBEBA
S1130090CFEFD0E1DEBFCDBF11E0A0E0B1E0EAE1F7
S11300A0F3E000E00BBF02C007900D92A030B1074F
S11300B0D9F722E0A0E0B1E001C01D92A231B2075D
S11300C0E1F71ED128C19CCF87B3806F87BB81B372
S11300D0806F81BB089548B321E030E0B90102C0CC
S11300E0660F771F8A95E2F7CB019B012295329523
S11300F0307F3227207F3227242B28BB92B3807F86
S1130100892B82BB0895FC0195818481981799F00D
S1130110A081B181828191E0980F9283A80FB11DD3
S11301206C9392818581981301C0128284818F5FC0
S1130130848381E0089580E00895FC01848188230C
S113014099F08381A081B181A80FB11D8C91DB014D
S11301508C9383818F5F83839581891301C013827C
S113016084818150848381E008951F920F920FB699
S11301700F9211240BB60F922F933F934F935F93DB
S11301806F937F938F939F93AF93BF93EF93FF935B
S11301906CB18CE092E0B7DF8823D1F3FF91EF914B
S11301A0BF91AF919F918F917F916F915F914F918B
S11301B03F912F910F900BBE0F900FBE0F901F9089
S11301C018951F920F920FB60F9211240BB60F922F
S11301D02F933F934F935F936F937F938F939F934B
S11301E0AF93BF93EF93FF93CF93DF931F92CDB75A
S11301F0DEB780910501882359F0BE016F5F7F4F00
S113020081E091E09ADF8823C1F389818CB901C030
S113021056980F90DF91CF91FF91EF91BF91AF91DD
S11302209F918F917F916F915F914F913F912F910A
S11302300F900BBE0F900FBE0F901F901895139A3E
S1130240EBE8F0E0808182608083AAE8B0E08C91E2
S113025080618C938C9182608C9380E197E290937F
S11302608100809380008EEE92E0909387008093CB
S113027086008081806880830895809186009091B3
S1130280870020910001222339F08B3F910511F45E
S113029010920001019708C0833125E0920719F4F8
S11302A021E02093000101969093870080938600BB
S11302B008951F920F920FB60F9211240BB60F924E
S11302C02F933F934F935F936F937F938F939F935A
S11302D0AF93BF93EF93FF93D0DFFF91EF91BF9163
S11302E0AF919F918F917F916F915F914F913F91CA
S11302F02F910F900BBE0F900FBE0F901F9018956B
S1130300E3DE9DDF81E0E7DE83E0E5DE85E0E3DE3A
S10D031087E0E1DEFFCFF894FFCF91
S9030000FC
